:050D820000000000224A
:100D5900D2A0D2A1120D82C2A0120D82C2A1020D8F
:010D69008207
:0C0D6A00D2A1C2A0120D82D2A0020D8204
:100CAF00E4FFFED2A1120D8230A0160FBF00010E7D
:100CBF00D3EF94FAEE940040EF120D6A7E007F019D
:090CCF0022C2A1120D82E4FEFF15
:010CD80022F9
:100CD900E4FEEEC3940874809480501DC2A1000004
:100CE900EF30E704D2A08002C2A00000D2A1000028
:090CF900C2A1EF25E0FF0E80D935
:010D020022CE
:100D4500285E5F5E29004142436465663132332186
:040D550040232F0008
:100BB20012095BB2907512017B4BE4FD7F40120A71
:100BC200307BFF7A0D7945750D027D01E4FF120A33
:100BD200E87BFF7A0D794B750D027D03E4FF120A63
:100BE200E8E4FB7D057F28120B597B017D057F38E8
:100BF200120B597B027D057F48120B597B037D0541
:070C02007F58120B5980AC72
:100003000000000000000000002F000000000700B7
:10001300070000147F147F1400242A7F2A12006231
:1000230064081323003649552250000005030000DD
:1000330000001C224100000041221C000014083E65
:1000430008140008083E0808000000A0600000082B
:10005300080808080000606000000020100804027F
:10006300003E5149453E0000427F4000004261513D
:100073004946002141454B31001814127F100027D7
:1000830045454539003C4A4949300001710905039A
:1000930000364949493600064949291E00003636CB
:1000A300000000005636000000081422410000142E
:1000B300141414140000412214080002015109060B
:1000C30000324959513E007C1211127C007F49498C
:1000D3004936003E41414122007F4141221C007FBD
:1000E30049494941007F09090901003E4149497ACB
:1000F300007F0808087F0000417F41000020404145
:100103003F01007F08142241007F40404040007FB0
:10011300020C027F007F0408107F003E4141413EF4
:10012300007F09090906003E4151215E007F09193C
:1001330029460046494949310001017F0101003F39
:100143004040403F001F2040201F003F4038403FB9
:10015300006314081463000708700807006151491D
:10016300454300007F41410000552A552A550000B0
:1001730041417F000004020102040040404040402E
:10018300000001020400002054545478007F4844C6
:10019300443800384444442000384444487F0038FD
:1001A3005454541800087E0901020018A4A4A47C26
:1001B300007F080404780000447D400000408084F0
:1001C3007D00007F102844000000417F4000007C38
:1001D30004180478007C0804047800384444443844
:1001E30000FC242424180018242418FC007C080490
:1001F300040800485454542000043F444020003C69
:100203004040207C001C2040201C003C4030403CEF
:10021300004428102844001CA0A0A07C004464547F
:100223004C441414141414140000000000000000C3
:100233000000000000000000000000F800000000C3
:10024300000000333000000000100C06100C060004
:10025300000000000000000040C07840C07840006B
:10026300043F04043F040400007088FC08300000CD
:10027300001820FF211E0000F008F000E018000025
:1002830000211C031E211E0000F0088870000000DE
:100293001E2123241927211010160E000000000030
:1002A3000000000000000000000000E0180402004D
:1002B300000000071820400000020418E0000000BE
:1002C3000040201807000000404080F080404000BC
:1002D3000202010F01020200000000F00000000012
:1002E3000101011F010101000000000000000000E6
:1002F30080B070000000000000000000000000005B
:1003030000010101010101010000000000000000E3
:10031300003030000000000000000000806018047E
:10032300006018060100000000E010080810E0005B
:10033300000F102020100F00001010F80000000024
:100343000020203F2020000000700808088870006B
:1003530000302824222130000030088888483000EB
:100363000018202020110E000000C02010F800000B
:1003730000070424243F240000F8088888080800A4
:100383000019212020110E0000E0108888180000B9
:10039300000F112020110E0000380808C83808008B
:1003A3000000003F0000000000708808088870000B
:1003B300001C222121221C0000E010080810E0008C
:1003C3000000312222110F00000000C0C000000015
:1003D300000000303000000000000080000000003A
:1003E3000000806000000000000080402010080032
:1003F30000010204081020004040404040404000FB
:1004030004040404040404000008102040800000D5
:100413000020100804020100007048080808F000DA
:100423000000003036010000C030C828E810E000AA
:100433000718272423140B000000C038E000000035
:10044300203C23020227382008F88888887000009F
:10045300203F202020110E00C03008080808380073
:10046300071820202010080008F808080810E000EA
:10047300203F202020100F0008F88888E80810008B
:10048300203F20202320180008F88888E80810005F
:10049300203F200003000000C03008080838000097
:1004A30007182020221E020008F808000008F80898
:1004B300203F210101213F20000808F8080800001F
:1004C3000020203F2020000000000808F808080052
:1004D300C08080807F00000008F888C028180800CA
:1004E300203F20012638200008F808000000000003
:1004F300203F20202020300008F8F800F8F80800FA
:10050300203F003F003F200008F830C00008F808F3
:10051300203F200007183F00E01008080810E00003
:100523000F10202020100F0008F808080808F0001A
:10053300203F210101010000E01008080810E0003D
:100543000F18242438504F0008F8888888887000D2
:10055300203F2000030C3020007088080808380072
:100563000038202121221C00180808F80808180068
:100573000000203F2000000008F808000008F808E9
:10058300001F202020201F000878880000C838089A
:10059300000007380E010000F80800F80008F80012
:1005A300033C0700073C03000818688080681808AC
:1005B30020302C03032C30200838C800C83808002A
:1005C3000000203F2000000010080808C838080079
:1005D3002038262120201800000000FE020202001D
:1005E3000000007F40404000000C30C000000000CD
:1005F300000000010638C00000020202FE000000F5
:10060300004040407F00000000000402020204009A
:1006130000000000000000000000000000000000D7
:1006230080808080808080800002020400000000BF
:1006330000000000000000000000808080800000B7
:100643000019242222223F2008F8008080000000A5
:10065300003F112020110E00000000808080000068
:10066300000E112020201100000000808088F80077
:10067300000E112020103F200000808080800000A9
:10068300001F222222221300008080F0888888180D
:100693000020203F20200000000080808080800018
:1006A300006B94949493600008F8008080800000AD
:1006B300203F210000203F20008098980000000088
:1006C3000020203F202000000000008098980000B8
:1006D30000C08080807F000008F8000080808000D8
:1006E300203F24022D302000000808F800000000FD
:1006F3000020203F202000008080808080808000B8
:10070300203F20003F20003F808000808080000049
:10071300203F210000203F200000808080800000D7
:10072300001F202020201F00808000808000000008
:1007330080FFA12020110E00000000808080800037
:10074300000E112020A0FF80808080008080800028
:1007530020203F2120000100000080808080800055
:100763000033242424241900008080E080800000CA
:100773000000001F20200000808000000080800017
:10078300001F202020103F20808080000080808078
:1007930000010E3008060100808000800080808008
:1007A3000F300C030C300F0000808000808080002D
:1007B3000020312E0E312000808080000080808058
:1007C30080818E7018060100008080808080800008
:1007D3000021302C2221300000000000807C020226
:1007E30000000000003F404000000000FF00000048
:1007F30000000000FF0000000002027C80000000F7
:100803000040403F00000000000601010202040412
:1008130000000000000000000000F010101010FFA6
:1008230010101010F0000000000000000000000095
:10083300000000000000000000000F04040404FF97
:10084300040404040F000000000000000000000086
:10085300000000000000000008080838C808090E5E
:100863000808C8380808080000000000000000005D
:1008730000000000000000008080404020110A04B6
:100883000A112040408080000000000000000000AA
:1008930000000000000000001060028C00FE02F265
:1008A30002FE00F800FF000000000000000000004E
:1008B300000000000000000004047E018047300FA8
:1008C30010270047807F00000000000000000000A8
:1008D3000000000000000000404042CC00909090D7
:1008E3009090FF101116100000000000000000009F
:1008F30000000000000000000000003F1028603FDF
:100903001010010E3040F000000000000000000055
:10091300000000000000000000000C12120C000098
:1009230000000000000000000000000000000000C4
:1009330000000000000000000000000000000000B4
:1009430000000000000000000000000000000000A4
:0809530000000000000000009C
:100D2700D3EF9400EE940040147D707C00ED1D70AD
:0D0D3700011CED4C70F7EF1F70E61E80E30D
:010D4400228C
:100C4E00F583E582250BF582E43583F583E493FF86
:020C5E007D40D7
:100C60008F168D17120D597F78120CD9120CAFAF59
:100C700017120CD9120CAFAF16120CD9120CAF020E
:020C80000D6AFB
:020C09008F0852
:100C0B00E4F509C3E5099408748094805034E50930
:100C1B0024B0FFE4FD120C60E4FD7F10120C60E4C5
:100C2B00FDFF120C60E4F50AC3E50A94807480940E
:100C3B0080500B7D40AF08120C60050A80EA050955
:020C4B0080C166
:010C4D002284
:100D03008F15ED24B0FFE4FD120C60E51554F0C41B
:100D1300540F4410FFE4FD120C60E515540FFFE47B
:040D2300FD020C6061
:10095B007FC87E00120D27E4FD7FAE120C60E4FD14
:10096B00FF120C60E4FD7F10120C60E4FD7F40125F
:10097B000C60E4FD7FB0120C60E4FD7F81120C6013
:10098B00E4FD7FFF120C60E4FD7FA1120C60E4FD1F
:10099B007FA6120C60E4FD7FA8120C60E4FD7F3F84
:1009AB00120C60E4FD7FC8120C60E4FD7FD3120CC7
:1009BB0060E4FDFF120C60E4FD7FD5120C60E4FDDA
:1009CB007F80120C60E4FD7FD8120C60E4FD7F0584
:1009DB00120C60E4FD7FD9120C60E4FD7FF1120C68
:1009EB0060E4FD7FDA120C60E4FD7F12120C60E410
:1009FB00FD7FDB120C60E4FD7F30120C60E4FD7FA9
:100A0B008D120C60E4FD7F14120C60E4FD7FA412C8
:100A1B000C60E4FD7FA6120C60E4FD7FAF120C604E
:050A2B00E4FF020C09CC
:040A30008F0F8D1087
:100A3400E4F513EB24E0F513E51224FE60390460B9
:100A440003020AE7AD10AF0F120D03E4F514C3E57A
:100A5400149406748094804003020AE775F006E556
:100A640013A42403F582E5F03400F583E58225140C
:100A7400120C54051480D7AD10AF0F120D03E4F51A
:100A840014C3E514940874809480502075F010E524
:100A940013A42514F582E435F0F583E582242BF5BF
:100AA40082E5833402120C59051480D5E51004FD47
:100AB400AF0F120D03E4F514C3E514940874809485
:100AC40080502075F010E513A42514F582E435F068
:100AD400F583E5822433F582E5833402120C59054B
:030AE4001480D5A6
:010AE70022EC
:0A0AE8008F088D098B0A8A0B890C18
:100AF200E4F50EAB0AAA0BA90C850E8275830012CF
:100B02000C82FB6051850D12AD09AF08120A30AF9D
:100B12000D7E00EF6401700474068008EF64024EDB
:100B2200700674082508F508D3E508947A74809451
:100B320080400AE50D64017004F5080509D3E50853
:100B4200947874809480400AE50D64027004F5087C
:060B52000509050E809D5F
:010B5800227A
:060B59008F088D098B0AD4
:100B5F00120D03E4F50BC3E50B94107480948050D1
:100B6F001575F040E50AA4241BF582E5F034081250
:100B7F000C4E050B80E0E50904FDAF08120D03E4F0
:100B8F00F50BC3E50B941074809480501575F040ED
:100B9F00E50AA4243BF582E5F03408120C4E050B50
:020BAF0080E0E4
:010BB1002221
:03000000020D7678
:0C0D7600787FE4F6D8FD758117020BB2FF
:100C8200BB010CE58229F582E5833AF583E0225027
:100C920006E92582F8E622BBFE06E92582F8E22271
:0D0CA200E58229F582E5833AF583E493228B
:00000001FF
